{
  "contractName": "LandRegistration",
  "abi": [
    {
      "constant": false,
      "inputs": [
        {
          "internalType": "uint256",
          "name": "post_id",
          "type": "uint256"
        },
        {
          "internalType": "uint256",
          "name": "owner_id",
          "type": "uint256"
        },
        {
          "internalType": "uint256",
          "name": "category_id",
          "type": "uint256"
        },
        {
          "internalType": "string",
          "name": "title",
          "type": "string"
        },
        {
          "internalType": "string",
          "name": "description",
          "type": "string"
        },
        {
          "internalType": "string",
          "name": "date_time",
          "type": "string"
        },
        {
          "internalType": "string",
          "name": "place",
          "type": "string"
        },
        {
          "internalType": "string",
          "name": "latitude",
          "type": "string"
        },
        {
          "internalType": "string",
          "name": "longitude",
          "type": "string"
        },
        {
          "internalType": "string",
          "name": "status",
          "type": "string"
        }
      ],
      "name": "add_posts",
      "outputs": [],
      "payable": false,
      "stateMutability": "nonpayable",
      "type": "function"
    },
    {
      "constant": false,
      "inputs": [
        {
          "internalType": "uint256",
          "name": "transaction_id",
          "type": "uint256"
        },
        {
          "internalType": "uint256",
          "name": "post_id",
          "type": "uint256"
        },
        {
          "internalType": "uint256",
          "name": "owner_id",
          "type": "uint256"
        },
        {
          "internalType": "uint256",
          "name": "user_id",
          "type": "uint256"
        },
        {
          "internalType": "uint256",
          "name": "appointment_id",
          "type": "uint256"
        },
        {
          "internalType": "string",
          "name": "datetime",
          "type": "string"
        },
        {
          "internalType": "string",
          "name": "status",
          "type": "string"
        }
      ],
      "name": "add_transaction",
      "outputs": [],
      "payable": false,
      "stateMutability": "nonpayable",
      "type": "function"
    }
  ],
  "bytecode": "0x608060405234801561001057600080fd5b506109ea806100206000396000f3fe608060405234801561001057600080fd5b50600436106100365760003560e01c806365ef8d3a1461003b578063f3e1db30146101bf575b600080fd5b6101bd600480360360e081101561005157600080fd5b810190808035906020019092919080359060200190929190803590602001909291908035906020019092919080359060200190929190803590602001906401000000008111156100a057600080fd5b8201836020820111156100b257600080fd5b803590602001918460018302840111640100000000831117156100d457600080fd5b91908080601f016020809104026020016040519081016040528093929190818152602001838380828437600081840152601f19601f8201169050808301925050505050505091929192908035906020019064010000000081111561013757600080fd5b82018360208201111561014957600080fd5b8035906020019184600183028401116401000000008311171561016b57600080fd5b91908080601f016020809104026020016040519081016040528093929190818152602001838380828437600081840152601f19601f820116905080830192505050505050509192919290505050610623565b005b61062160048036036101408110156101d657600080fd5b810190808035906020019092919080359060200190929190803590602001909291908035906020019064010000000081111561021157600080fd5b82018360208201111561022357600080fd5b8035906020019184600183028401116401000000008311171561024557600080fd5b91908080601f016020809104026020016040519081016040528093929190818152602001838380828437600081840152601f19601f820116905080830192505050505050509192919290803590602001906401000000008111156102a857600080fd5b8201836020820111156102ba57600080fd5b803590602001918460018302840111640100000000831117156102dc57600080fd5b91908080601f016020809104026020016040519081016040528093929190818152602001838380828437600081840152601f19601f8201169050808301925050505050505091929192908035906020019064010000000081111561033f57600080fd5b82018360208201111561035157600080fd5b8035906020019184600183028401116401000000008311171561037357600080fd5b91908080601f016020809104026020016040519081016040528093929190818152602001838380828437600081840152601f19601f820116905080830192505050505050509192919290803590602001906401000000008111156103d657600080fd5b8201836020820111156103e857600080fd5b8035906020019184600183028401116401000000008311171561040a57600080fd5b91908080601f016020809104026020016040519081016040528093929190818152602001838380828437600081840152601f19601f8201169050808301925050505050505091929192908035906020019064010000000081111561046d57600080fd5b82018360208201111561047f57600080fd5b803590602001918460018302840111640100000000831117156104a157600080fd5b91908080601f016020809104026020016040519081016040528093929190818152602001838380828437600081840152601f19601f8201169050808301925050505050505091929192908035906020019064010000000081111561050457600080fd5b82018360208201111561051657600080fd5b8035906020019184600183028401116401000000008311171561053857600080fd5b91908080601f016020809104026020016040519081016040528093929190818152602001838380828437600081840152601f19601f8201169050808301925050505050505091929192908035906020019064010000000081111561059b57600080fd5b8201836020820111156105ad57600080fd5b803590602001918460018302840111640100000000831117156105cf57600080fd5b91908080601f016020809104026020016040519081016040528093929190818152602001838380828437600081840152601f19601f820116905080830192505050505050509192919290505050610707565b005b61062b610880565b6040518060e0016040528089815260200188815260200187815260200186815260200185815260200184815260200183815250905060018190806001815401808255809150509060018203906000526020600020906007020160009091929091909150600082015181600001556020820151816001015560408201518160020155606082015181600301556080820151816004015560a08201518160050190805190602001906106dc9291906108bd565b5060c08201518160060190805190602001906106f99291906108bd565b505050505050505050505050565b61070f61093d565b6040518061014001604052808c81526020018b81526020018a81526020018981526020018881526020018781526020018681526020018581526020018481526020018381525090506000819080600181540180825580915050906001820390600052602060002090600a02016000909192909190915060008201518160000155602082015181600101556040820151816002015560608201518160030190805190602001906107bf9291906108bd565b5060808201518160040190805190602001906107dc9291906108bd565b5060a08201518160050190805190602001906107f99291906108bd565b5060c08201518160060190805190602001906108169291906108bd565b5060e08201518160070190805190602001906108339291906108bd565b506101008201518160080190805190602001906108519291906108bd565b5061012082015181600901908051906020019061086f9291906108bd565b505050505050505050505050505050565b6040518060e00160405280600081526020016000815260200160008152602001600081526020016000815260200160608152602001606081525090565b828054600181600116156101000203166002900490600052602060002090601f016020900481019282601f106108fe57805160ff191683800117855561092c565b8280016001018555821561092c579182015b8281111561092b578251825591602001919060010190610910565b5b5090506109399190610990565b5090565b604051806101400160405280600081526020016000815260200160008152602001606081526020016060815260200160608152602001606081526020016060815260200160608152602001606081525090565b6109b291905b808211156109ae576000816000905550600101610996565b5090565b9056fea265627a7a72315820648cc37e1b9a24372fa0a56158ad3b5c8630e0578b1fde51ecffc773b9f0c2d564736f6c63430005100032",
  "source": "pragma solidity >= 0.5.0 < 0.7.0;\ncontract LandRegistration{\n \nstruct posts{\n\n \n\tuint post_id;\n\tuint owner_id;\n\tuint category_id;\n\tstring title;\n\tstring description;\n\tstring date_time;\n\tstring place;\n\tstring latitude;\n\tstring longitude;\n\tstring status;\n\n\n}\n\nstruct transaction{\n\n \n\tuint transaction_id;\n\tuint post_id;\n\tuint owner_id;\n\tuint user_id;\n\tuint appointment_id;\n\tstring datetime;\n\tstring status;\n\n\n}\n\nposts []fu;\n\ntransaction []tu;\n\n\n\nfunction add_posts(uint post_id,\n\tuint owner_id,uint category_id,\n\t\n\tstring memory title,string memory description,string memory date_time,string memory place,string memory latitude,string memory longitude,\n\tstring memory status)\n\tpublic\n\t{\n\tposts memory f1=posts(post_id,owner_id,category_id,title,description,date_time,place,latitude,longitude,status);\n\tfu.push(f1);\n\t}\n\n\n\n\nfunction add_transaction(uint transaction_id,\n\tuint post_id,uint owner_id,uint user_id,uint appointment_id,\n\t\n\tstring memory datetime,\n\tstring memory status)\n\tpublic\n\t{\n\ttransaction memory f2=transaction(transaction_id,post_id,owner_id,user_id,appointment_id,datetime,status);\n\ttu.push(f2);\n\n\t\n\t}\n\n\n}\n\n",
  "sourcePath": "C:\\Users\\ALAN\\Desktop\\ACRE NOVA dhruvika\\ACRE NOVA dhruvika\\node_modules\\.bin\\contracts\\sample.sol",
  "compiler": {
    "name": "solc",
    "version": "0.5.16+commit.9c3226ce.Emscripten.clang"
  },
  "schemaVersion": "3.4.16",
  "updatedAt": "2025-03-15T05:16:54.481Z",
  "devdoc": {
    "methods": {}
  },
  "userdoc": {
    "methods": {}
  }
}